S01F00006F6E5F64656D616E645F747261666669635F6C696768742E73726563AB
S11300000C942A000C9476000C9447000C9447003E
S11300100C9447000C9447000C9447000C94470040
S11300200C9447000C9447000C9447000C9449002E
S11300300C9447000C9447000C9447000C94470020
S11300400C9447000C9447000C9447000C94470010
S11300500C94470011241FBECFE5D8E0DEBFCDBF0E
S113006010E0A0E6B0E0ECEBF0E102C005900D92E8
S1130070A63EB107D9F720E0A6EEB0E001C01D927C
S1130080A03FB207E1F70E9453020C945C080C9461
S113009000001F920F920FB60F9211242F933F93DB
S11300A04F935F936F937F938F939F93AF93BF937C
S11300B0EF93FF938091E8008F5F8093E8006BE0FB
S11300C070E080E090E00E949804FF91EF91BF916E
S11300D0AF919F918F917F916F915F914F913F91DC
S11300E02F910F900FBE0F901F9018951F920F9293
S11300F00FB60F9211242F933F934F935F936F93F7
S11301007F938F939F93AF93BF93EF93FF9386E077
S113011090E00E94210481E08093E9008091E7004F
S11301208093E6001092E700FF91EF91BF91AF91A9
S11301309F918F917F916F915F914F913F912F91FB
S11301400F900FBE0F901F90189561E070E081E44E
S113015090E00E945A0261E070E082E490E00E9424
S11301605A0261E070E083E490E00E945A0260E089
S113017070E084E490E00E945A0260E070E080E065
S113018090E00E946D046BE070E080E090E00E94DB
S113019098046BE070E086E090E00E94B9030E944E
S11301A0B50380E090E00E94520486E090E00E9453
S11301B0F303089586E090E00E94F30360E070E0AA
S11301C081E490E00E94CB0260E070E082E490E081
S11301D00E94CB0260E070E083E490E00E94CB02D6
S11301E0AAC065E670E080E090E00E94AB048091D4
S11301F0E800843038F08091E7008F5F8093E70057
S11302001092E8008091E700853048F4E5E0F0E0E2
S1130210E81BF109E05AFF4F808185BB1EC08A307C
S113022048F4EAE0F0E0E81BF109E05AFF4F80816E
S113023085BB13C08F3048F4EFE0F0E0E81BF10910
S1130240E05AFF4F808185BB08C0E4E1F0E0E81B81
S1130250F109E05AFF4F808185BB8091E70085302A
S113026088F461E480E00E944B0262E482E00E9430
S11302704B0261E481E00E944F0262E481E00E944B
S11302804F0259C08A3000F58091E800813011F0A6
S1130290833049F461E481E00E944B0262E481E02E
S11302A00E944B0208C061E481E00E944F0262E4B4
S11302B081E00E944F0261E480E00E944F0262E408
S11302C082E00E944F0237C08F3088F461E482E0FC
S11302D00E944B0262E480E00E944B0261E481E0F0
S11302E00E944F0262E481E00E944F0224C08431E4
S11302F000F58091E800813011F0833049F461E425
S113030081E00E944B0262E481E00E944B0208C03B
S113031061E481E00E944F0262E481E00E944F02A6
S113032061E482E00E944F0262E480E00E944F0296
S113033002C01092E7008091E900882309F451CFAC
S113034080E090E00E9465056BE070E080E090E062
S11303500E94980460E070E081E490E00E94CB0287
S113036060E070E082E490E00E94CB0260E070E024
S113037083E490E00E94CB028091E6008A508530AD
S113038020F48AE08093E70080C08FE08093E70048
S11303907CC065E670E080E090E00E94AB04809150
S11303A0E800843038F08091E70081508093E700C2
S11303B01092E800E091E700EB3030F0F0E0EA5A08
S11303C0FF4F808185BB0DC0E63030F0F0E0E55A88
S11303D0FF4F808185BB05C0F0E0E05AFF4F80816C
S11303E085BB8091E70095EF980F9530C0F480911C
S11303F0E800813011F0833049F461E481E00E9427
S11304004B0262E481E00E944B023FC061E481E060
S11304100E944F0262E481E00E944F0236C09AEFCC
S1130420980F953088F461E482E00E944B0262E404
S113043080E00E944B0261E481E00E944F0262E48A
S113044081E00E944F0221C081508530E0F4809108
S1130450E800813011F0833049F461E481E00E94C6
S11304604B0262E481E00E944B0208C061E481E037
S11304700E944F0262E481E00E944F0261E482E044
S11304800E944F0202C01092E9008091E90081307D
S113049009F47FCF8FCE41E00E94EB02089540E043
S11304A00E94EB0208950E94A5000E94DA0080E0F9
S11304B090E00895823401F118F4813439F05EC07B
S11304C0833481F1843409F443C058C0611102C0FB
S11304D01ABA0895613019F48FEF8ABB08951F92F8
S11304E08F938AE690E09F938F930E947E050F90EE
S11304F00F900F900F900895611102C017BA0895DC
S1130500613019F48FEF87BB08951F928F938AE6A9
S113051090E09F938F930E947E050F900F900F9011
S11305200F900895611102C014BA0895613019F44E
S11305308FEF84BB08951F928F938AE690E09F9378
S11305408F930E947E050F900F900F900F90089547
S1130550611102C011BA0895613019F48FEF81BBA3
S113056008951F928F938AE690E09F938F930E9441
S11305707E050F900F900F900F9008951F928F9308
S113058080E990E09F938F930E947E050F900F90D7
S11305900F900F900895823459F018F4813431F09B
S11305A00DC0833439F0843439F008C06BBB08952E
S11305B068BB089565BB089562BB08951F928F932D
S11305C08BEA90E09F938F930E947E050F900F908B
S11305D00F900F9008956234B9F118F4613441F02A
S11305E0B7C0633409F45CC0643409F485C0B0C096
S11305F041110EC04BB321E030E0B90102C0660FD7
S1130600771F8A95E2F7CB01809584238BBB0895ED
S1130610413069F44BB321E030E0B90102C0660F08
S1130620771F8A95E2F7CB01842B8BBB08951F9229
S11306306F9384EC90E09F938F930E947E050F90BC
S11306400F900F900F90089541110EC048B321E010
S113065030E0B90102C0660F771F8A95E2F7CB013B
S11306608095842388BB0895413069F448B321E020
S113067030E0B90102C0660F771F8A95E2F7CB011B
S1130680842B88BB08951F926F9384EC90E09F9312
S11306908F930E947E050F900F900F900F900895F6
S11306A041110EC045B321E030E0B90102C0660F2C
S11306B0771F8A95E2F7CB018095842385BB089543
S11306C0413069F445B321E030E0B90102C0660F5E
S11306D0771F8A95E2F7CB01842B85BB08951F927F
S11306E06F9384EC90E09F938F930E947E050F900C
S11306F00F900F900F90089541110EC042B321E066
S113070030E0B90102C0660F771F8A95E2F7CB018A
S11307108095842382BB0895413069F442B321E07B
S113072030E0B90102C0660F771F8A95E2F7CB016A
S1130730842B82BB08951F926F9384EC90E09F9367
S11307408F930E947E050F900F900F900F90089545
S11307501F926F938BEA90E09F938F930E947E0584
S11307600F900F900F900F9008958FB780688FBFF0
S11307700895863029F08730B1F0853099F526C088
S11307806A3019F06B3041F0089585B7826085BFF7
S113079085B78E7F85BF089585B7826085BF85B78D
S11307A0816085BF08956A3019F06B3041F0089577
S11307B085B7886085BF85B78B7F85BF089585B76A
S11307C0886085BF85B7846085BF08956A3019F055
S11307D06B3029F0089584B78F7B84BF089584B764
S11307E0806484BF0895863029F0873081F0853095
S11307F039F51AC04BB721E030E0B90102C0660FE9
S1130800771F8A95E2F7CB01842B8BBF08954BB7F2
S113081021E030E0B90102C0660F771F8A95E2F744
S1130820CB01842B8BBF08954BB721E030E0B90195
S113083002C0660F771F8A95E2F7CB01842B8BBF2A
S11308400895863029F0873089F0853051F51CC031
S11308504BB721E030E0B90102C0660F771F8A95DB
S1130860E2F7CB01809584238BBF08954BB721E039
S113087030E0B90102C0660F771F8A95E2F7CB0119
S1130880809584238BBF08954BB721E030E0B901F4
S113089002C0660F771F8A95E2F7CB018095842307
S11308A08BBF0895882319F0823061F0089503B650
S11308B003FC04C089B7816089BF089589B7826049
S11308C089BF089505B403FC04C089B7806489BF57
S11308D0089589B7806889BF0895882319F0823004
S11308E0A1F00895662319F0613041F0089583B7AB
S11308F0877F83BF83B78F7B83BF089583B7886067
S113090083BF83B78F7B83BF0895662319F061305B
S113091041F0089585B5877F85BD85B58F7B85BDFD
S1130920089583B7886083BF83B78F7B83BF08959F
S1130930882319F0823041F0089503B603FC02C005
S113094062BF08956CBF089505B403FC02C064BD82
S1130950089563BD0895882321F0823009F45BC0B3
S11309600895643681F140F46830C9F0693009F1C2
S1130970613009F0A9C009C06E36C9F16F3609F4B7
S113098040C0653609F0A0C028C083B7816083BF2A
S113099083B78D7F83BF83B78B7F83BF089583B76E
S11309A08E7F83BF83B7826083BF83B78B7F83BF10
S11309B0089583B7816083BF83B7826083BF83B7A1
S11309C08B7F83BF089583B78E7F83BF83B78D7F6B
S11309D083BF83B7846083BF089583B7816083BF77
S11309E083B78D7F83BF83B7846083BF089583B744
S11309F08E7F83BF83B7826083BF83B7846083BFE6
S1130A00089583B7816083BF83B7826083BF83B750
S1130A10846083BF0895643681F140F46830C9F07E
S1130A20693009F1613009F04FC009C06E36C9F16F
S1130A306F3609F440C0653609F046C028C085B554
S1130A408E7F85BD85B58D7F85BD85B5846085BD6B
S1130A50089585B58E7F85BD85B5826085BD85B5D4
S1130A608B7F85BD089585B58E7F85BD85B58260F4
S1130A7085BD85B5846085BD089585B5816085BDD6
S1130A8085B58D7F85BD85B58B7F85BD089585B57D
S1130A90816085BD85B58D7F85BD85B5846085BD47
S1130AA0089585B5816085BD85B5826085BD85B5B0
S1130AB08B7F85BD089585B5816085BD85B58260D0
S1130AC085BD85B5846085BD0895882319F082307D
S1130AD059F0089583B78E7F83BF83B78D7F83BF1B
S1130AE083B78B7F83BF089585B58E7F85BD85B51C
S1130AF08D7F85BD85B58B7F85BD0895A0E0B0E071
S1130B00E4E8F5E00C943508AE014B5F5F4FFA0161
S1130B1061917191AF018091EC009091ED000E9480
S1130B209405E2E00C945108ABE0B0E0EAE9F5E0AA
S1130B300C9425086C017B018A01FC011782168242
S1130B40838181FFCCC1CE0101963C01F6019381E2
S1130B50F70193FD859193FF81917F01882309F427
S1130B60BAC1853239F493FD859193FF81917F0158
S1130B70853229F4B60190E00E948B07E7CF912CCF
S1130B80212C312CFFE1F315D8F08B3279F038F4B5
S1130B90803279F08332A1F4232D20611DC08D327F
S1130BA061F0803369F4232D216016C0832D8260A7
S1130BB0382EE32DE4603E2E2AC0F32DF8601DC0CC
S1130BC037FC2DC020ED280F2A3040F08E32B9F4C6
S1130BD036FC81C1232D2064322E19C036FE06C096
S1130BE08AE0989E200D1124922E11C0EAE02E9ED8
S1130BF0200D1124222EF32DF0623F2E08C08C36D6
S1130C0021F4832D8068382E02C0883641F4F70120
S1130C1093FD859193FF81917F018111B3CF982F2B
S1130C209F7D9554933028F40C5F1F4F9FE3998365
S1130C300DC0833631F0833771F0833509F059C024
S1130C4021C0F801808189830E5F1F4F882483941B
S1130C50912C530113C02801F2E04F0E511CF801EE
S1130C60A080B18036FE03C0692D70E002C06FEF32
S1130C707FEFC5010E9480074C018201F32DFF77AD
S1130C803F2E16C0280122E0420E511CF801A0801C
S1130C90B18036FE03C0692D70E002C06FEF7FEFB4
S1130CA0C5010E9475074C01F32DF0683F2E8201A7
S1130CB033FC1BC0822D90E088169906B0F4B6016F
S1130CC080E290E00E948B072A94F4CFF50137FC70
S1130CD0859137FE81915F01B60190E00E948B07F8
S1130CE021102A9421E0821A91088114910471F749
S1130CF0E8C0843611F0893641F5F80137FE07C0A3
S1130D0060817181828193810C5F1F4F08C0608173
S1130D107181072E000C880B990B0E5F1F4FF32D6A
S1130D20FF763F2E97FF09C0909580957095619549
S1130D307F4F8F4F9F4FF0683F2E2AE030E0A30192
S1130D400E94C707882E861845C0853731F4232DA5
S1130D502F7EB22E2AE030E025C0932D997FB92E44
S1130D608F36C1F018F4883579F0B5C0803719F0A2
S1130D70883721F0B0C0E92FE061BE2EB4FE0DC06B
S1130D80FB2DF460BF2E09C034FE0AC0292F266053
S1130D90B22E06C028E030E005C020E130E002C0F9
S1130DA020E132E0F801B7FE07C0608171818281E1
S1130DB093810C5F1F4F06C06081718180E090E0D9
S1130DC00E5F1F4FA3010E94C707882E8618FB2DB4
S1130DD0FF773F2E36FE0DC0232D2E7FA22E8914C1
S1130DE058F434FE0BC032FC09C0832D8E7EA82E2D
S1130DF005C0B82CA32C03C0B82C01C0B92CA4FE88
S1130E000FC0FE01E80DF11D8081803321F49A2D7D
S1130E10997EA92E09C0A2FE06C0B394B39404C05F
S1130E208A2D867809F0B394A3FC11C0A0FE06C0F5
S1130E30B21488F4280C922C9B180EC0B21460F4DF
S1130E40B60180E290E00E948B07B394F7CFB2140E
S1130E5018F42B1802C0982C212CA4FE10C0B60143
S1130E6080E390E00E948B07A2FE17C0A1FC03C0A0
S1130E7088E790E002C088E590E0B6010CC08A2DB6
S1130E80867859F0A1FE02C08BE201C080E2A7FC83
S1130E908DE2B60190E00E948B07891438F4B60104
S1130EA080E390E00E948B079A94F7CF8A94F30131
S1130EB0E80DF11D8081B60190E00E948B0781103E
S1130EC0F5CF222009F442CEB60180E290E00E94E0
S1130ED08B072A94F6CFF6018681978102C08FEFA3
S1130EE09FEF2B96E2E10C944108FC0105906150C0
S1130EF070400110D8F7809590958E0F9F1F08952C
S1130F00FC016150704001900110D8F780959095D4
S1130F108E0F9F1F08950F931F93CF93DF93FB01B1
S1130F20238121FD03C08FEF9FEF2CC022FF16C049
S1130F3046815781248135814217530744F4A081A7
S1130F40B1819D012F5F3F4F318320838C93268194
S1130F5037812F5F3F4F3783268314C08B01EC0109
S1130F60FB010084F185E02D0995892BE1F6D80178
S1130F7016968D919C911797019617969C938E9334
S1130F801697CE01DF91CF911F910F910895FA0129
S1130F90AA27283051F1203181F1E8946F936E7FB4
S1130FA06E5F7F4F8F4F9F4FAF4FB1E03ED0B4E0A5
S1130FB03CD0670F781F891F9A1FA11D680F791FE6
S1130FC08A1F911DA11D6A0F711D811D911DA11DF7
S1130FD020D009F468943F912AE0269F1124301907
S1130FE0305D3193DEF6CF010895462F4770405DA2
S1130FF04193B3E00FD0C9F7F6CF462F4F70405D51
S11310004A3318F0495D31FD4052419302D0A9F7AB
S1131010EACFB4E0A6959795879577956795BA95A5
S1131020C9F700976105710508959B01AC010A2E6B
S113103006945795479537952795BA95C9F7620F42
S1131040731F841F951FA01D08952F923F924F92E6
S11310505F926F927F928F929F92AF92BF92CF9244
S1131060DF92EF92FF920F931F93CF93DF93CDB74D
S1131070DEB7CA1BDB0B0FB6F894DEBF0FBECDBFC5
S113108009942A88398848885F846E847D848C8496
S11310909B84AA84B984C884DF80EE80FD800C819F
S11310A01B81AA81B981CE0FD11D0FB6F894DEBF82
S10F10B00FBECDBFED010895F894FFCFF2
S11310BC3F065B4F666D7D077F6F4552524F522042
S11310CC57524F4E4720504F525420444952454397
S11310DC54494F4E204F4E20504F525420257300EC
S11310EC4552524F5220494E495449414C495A4950
S11310FC4E4720504F5254202573004552524F52A4
S113110C2057524954494E47204F4E20504F525469
S113111C202573004552524F522057524F4E4720B0
S113112C50494E2056414C5545204F4E20504F525D
S109113C5420257300009D
S9030000FC
